:020000040800F2
:10000000002000209904000861040008670400082B
:1000100000000000000000000000000000000000E0
:100020000000000000000000000000006D04000857
:1000300000000000000000007704000881040008B0
:10004000E9040008E9040008E9040008E9040008DC
:10005000E90400083D040008E9040008E904000878
:1000600000000000E9040008E9040008E9040008B1
:10007000E9040008E9040008E9040008E9040008AC
:10008000FD020008E9040008E9040008E90400088A
:1000900000000000E9040008E9040008E904000881
:1000A000E9040008E9040008E9040008E90400087C
:0C00B000E9040008E9040008000000005A
:1000BC0010B5064C2378002B07D1054B002B02D032
:1000CC00044800E000BF0123237010BD080000208D
:1000DC000000000058050008044B10B5002B03D09D
:1000EC000349044800E000BF10BDC04600000000FA
:1000FC000C0000205805000880B582B000AF02004B
:10010C00FB1D1A70FB1D1B787F2B09D8FB1D1B7860
:10011C001A001F231A40044B012191400A001A6057
:10012C00C046BD4602B080BD00E100E090B583B092
:10013C0000AF02003960FB1D1A70FB1D1B787F2B72
:10014C0028D82F4AFB1D1B785BB29B08C0339B0041
:10015C009B58FA1D1278110003220A40D200FF218D
:10016C0091400A00D2431A4011003B689B01FF22C8
:10017C001A40FB1D1B78180003230340DB009A4038
:10018C001F48FB1D1B785BB29B080A43C0339B00C6
:10019C001A5031E01B4AFB1D1B7819000F230B4032
:1001AC00083B9B0806339B00D31804331B68FA1DCD
:1001BC001278110003220A40D200FF2191400A005C
:1001CC00D2431A4011003B689B01FF221A40FB1DD1
:1001DC001B78180003230340DB009A400948FB1DE1
:1001EC001B781C000F232340083B9B080A43063353
:1001FC009B00C31804331A60C046BD4603B090BDC3
:10020C0000E100E000ED00E080B500AF00F090F8F8
:10021C0000F0C0F800F036F8164B1A6813005B01BA
:10022C009B1A9B009B18DB001A00134B9A62134B12
:10023C001B78002BFBD00F4B1B685A1C0D4B1A6004
:10024C000F4B180000F064F80A4B1A6813005B019E
:10025C009B1A9B009B18DB001A00074B9A62054BFC
:10026C001B680B2B02D1034B01221A60034B00229B
:10027C001A70DCE70000002000040040240000207D
:10028C0080841E0080B500AF174BDA6B164B022131
:10029C000A43DA63154B00221A60144B1A68134B8D
:1002AC0080210A431A60114B00225A620F4BFA222A
:1002BC0092009A620D4BFA229201DA620B4BDA68C9
:1002CC000A4B01210A43DA60084B1A68074B0121DB
:1002DC000A431A6000211020FFF728FF1020FFF7B7
:1002EC000BFFC046BD4680BD00100240000400401C
:1002FC0080B500AF00F040F8044B1A69034B0121A4
:10030C008A431A61C046BD4680BDC0460004004009
:10031C0080B582B000AF786002E07B68013B7B6007
:10032C007B68002BF9D1C046C046BD4602B080BDEB
:10033C0080B500AF0D4B5A6B0C4B04210A435A632A
:10034C000B4B1A680A4B0B490A401A60084B1A6887
:10035C00074B802149010A431A60054B9A6A044BEA
:10036C0040210A439A62C046BD4680BD001002403F
:10037C0000080050FFCFFFFF80B500AF044B5A6957
:10038C00034B40214A405A61C046BD4680BDC04621
:10039C000008005080B500AF234B5A6B224B012153
:1003AC000A435A63A023DB051A68A023DB0503214B
:1003BC008A431A60A023DB05DA68A023DB0503213E
:1003CC008A43DA60A023DB05DA68A023DB05012170
:1003DC000A43DA60144B1A6C134B01210A431A645A
:1003EC00124B1A68114B01210A431A600F4A8023E1
:1003FC00D3580E490122134380228B500B4B5A6861
:10040C000A4B01210A435A60084B1A68074B012119
:10041C008A431A6000210520FFF788FE0520FFF7AC
:10042C006BFEC046BD4680BD001002400018024065
:10043C0080B500AF054B01221A70054B1A69044BAD
:10044C0001210A431A61C046BD4680BD240000202C
:10045C000018024080B500AFFEE780B500AFFEE7A4
:10046C0080B500AFC046BD4680BD80B500AFC0466C
:10047C00BD4680BD80B500AF00F032F8C046BD4629
:10048C0080BD80B500AFC046BD4680BD0D488546D9
:10049C00FFF7F7FF0C480D490D4A002302E0D45832
:1004AC00C4500433C4188C42F9D30A4A0A4C0023B2
:1004BC0001E013600432A242FBD300F023F8FFF7F3
:1004CC00A3FEFEE700200020000000200800002012
:1004DC0078050008080000202C000020FEE7000032
:1004EC0080B500AF054B1B781A00054B1B68D21862
:1004FC00034B1A60C046BD4680BDC04604000020B8
:10050C002800002070B500260C4C0D4D641BA41067
:10051C00A64209D1002600F019F80A4C0A4D641BBA
:10052C00A410A64205D170BDB300EB589847013614
:10053C00EEE7B300EB5898470136F2E77005000878
:10054C00700500087405000870050008F8B5C04671
:10055C00F8BC08BC9E467047F8B5C046F8BC08BC51
:04056C009E467047F0
:04057000E50000089A
:04057400BD000008BE
:08057800010000000100000079
:040000050800049952
:00000001FF
