:020000040800F2
:1000000000200020DD0E0008A50E0008AB0E000841
:1000100000000000000000000000000000000000E0
:10002000000000000000000000000000B10E000809
:100030000000000000000000BB0E0008C50E000814
:100040002D0F00082D0F00082D0F00082D0F0008A0
:100050002D0F00083D050008250700086D06000863
:10006000000000002D0F00082D0F00082D0F0008C4
:100070002D0F00082D0F00082D0F00082D0F000870
:10008000D10300082D0F00082D0F00082D0F0008C8
:10009000000000002D0F00082D0F00082D0F000894
:1000A0002D0F00082D0F00082D0F00082D0F000840
:0C00B0002D0F00082D0F000800000000BC
:1000BC0010B5064C2378002B07D1054B002B02D032
:1000CC00044800E000BF0123237010BD0C00002089
:1000DC00000000009C0F0008044B10B5002B03D04F
:1000EC000349044800E000BF10BDC04600000000FA
:1000FC00100000209C0F0008002243088B4274D390
:10010C0003098B425FD3030A8B4244D3030B8B420C
:10011C0028D3030C8B420DD3FF22090212BA030C15
:10012C008B4202D31212090265D0030B8B4219D3F6
:10013C0000E0090AC30B8B4201D3CB03C01A524116
:10014C00830B8B4201D38B03C01A5241430B8B425E
:10015C0001D34B03C01A5241030B8B4201D30B0347
:10016C00C01A5241C30A8B4201D3CB02C01A52416E
:10017C00830A8B4201D38B02C01A5241430A8B4231
:10018C0001D34B02C01A5241030A8B4201D30B021A
:10019C00C01A5241CDD2C3098B4201D3CB01C01A34
:1001AC00524183098B4201D38B01C01A524143093E
:1001BC008B4201D34B01C01A524103098B4201D32C
:1001CC000B01C01A5241C3088B4201D3CB00C01A99
:1001DC00524183088B4201D38B00C01A5241430811
:1001EC008B4201D34B00C01A5241411A00D2014636
:1001FC00524110467047FFE701B5002000F006F8A9
:10020C0002BDC0460029F7D076E770477047C0465C
:10021C0080B582B000AF0200FB1D1A70FB1D1B786D
:10022C007F2B09D8FB1D1B781A001F231A40044B87
:10023C00012191400A001A60C046BD4602B080BD43
:10024C0000E100E090B583B000AF02003960FB1D07
:10025C001A70FB1D1B787F2B28D82F4AFB1D1B788F
:10026C005BB29B08C0339B009B58FA1D127811009F
:10027C0003220A40D200FF2191400A00D2431A40C7
:10028C0011003B689B01FF221A40FB1D1B781800D4
:10029C0003230340DB009A401F48FB1D1B785BB215
:1002AC009B080A43C0339B001A5031E01B4AFB1DCC
:1002BC001B7819000F230B40083B9B0806339B004F
:1002CC00D31804331B68FA1D1278110003220A405C
:1002DC00D200FF2191400A00D2431A4011003B6822
:1002EC009B01FF221A40FB1D1B78180003230340BF
:1002FC00DB009A400948FB1D1B781C000F23234090
:10030C00083B9B080A4306339B00C31804331A604E
:10031C00C046BD4603B090BD00E100E000ED00E03A
:10032C0080B500AF00F085FB00F026FD00F0B6FBB9
:10033C0096239B01180000F099FC00F055FBFEE79A
:10034C0080B582B000AF0200FB1D1A70FB1D1B783C
:10035C00002B01D1302330E0FB1D1B78012B01D188
:10036C0031232AE0FB1D1B78022B01D1322324E020
:10037C00FB1D1B78032B01D133231EE0FB1D1B78C7
:10038C00042B01D1342318E0FB1D1B78052B01D164
:10039C00352312E0FB1D1B78062B01D136230CE014
:1003AC00FB1D1B78072B01D1372306E0FB1D1B78A7
:1003BC00082B01D1382300E039231800BD4602B0C8
:1003CC0080BD000080B500AF514B1B680A331A008A
:1003DC004F4B1A604E4B1A68FA23DB009A4200D03E
:1003EC0086E0FA23DB00180000F048FB494B5A6BFF
:1003FC00494B1A60484B1B6848491800FFF77CFEB4
:10040C0003001A00464B1A60454B1B68DBB2180000
:10041C00FFF796FF0300180000F0CEFA3E4B1A6867
:10042C003F4B1B683D494B43D21A3B4B1A603A4B2E
:10043C001B68FA2291001800FFF75EFE03001A00F9
:10044C00384B1A60374B1B68DBB21800FFF778FF8C
:10045C000300180000F0B0FA2F4B1968314B1A68E2
:10046C0013005B019B1A9B009B18DB00CA1A2A4BDA
:10047C001A602D4B1B68DBB21800FFF761FF0300FD
:10048C00180000F099FA244B1A68274B1B6864215A
:10049C004B43D21A204B1A601F4B1B680A211800C1
:1004AC00FFF72AFE03001A00204B1A601F4B1B6833
:1004BC00DBB21800FFF744FF0300180000F07CFAD1
:1004CC00154B1968194B1A6813009B009B185B009D
:1004DC00CA1A114B1A60104B1B68DBB21800FFF7DD
:1004EC002FFF0300180000F067FA094B00221A6076
:1004FC00084B1A69074B01218A431A61054B1A698B
:10050C00044B02218A431A61C046BD4680BDC046D9
:10051C00400000200004004038000020102700009C
:10052C00280000202C000020300000203400002087
:10053C0080B500AF00F07DFAA023DB055A69A0233B
:10054C00DB0501210A435A61404B1B69022213400F
:10055C0011D03F4B1B68012B06D13E4B01221A7068
:10056C003B4B00221A6066E03B4B01221A70384B61
:10057C0001221A605FE0A023DB055A69A023DB058A
:10058C0001218A435A61A023DB055A69A023DB05AC
:10059C0002210A435A612D4B1B690222134011D0D0
:1005AC002B4B1B68012B06D12A4B04221A70284BAB
:1005BC0000221A603FE0284B04221A70244B0122BF
:1005CC001A6038E0A023DB055A69A023DB05022161
:1005DC008A435A61A023DB055A69A023DB0510214D
:1005EC000A435A61194B1B690222134011D0184B54
:1005FC001B68012B06D1174B07221A70144B0022D3
:10060C001A6018E0144B07221A70114B01221A6061
:10061C0011E0A023DB055A69A023DB0510218A43D6
:10062C005A61A023DB055A69A023DB0520210A436C
:10063C005A61064B1B6900F0D7F9084BDA68074B77
:10064C0002210A43DA60C046BD4680BD000400505A
:10065C00000000203C0000203D000020001802405B
:10066C0080B500AF00F0E5F9A023DB055A69A023A3
:10067C00DB0501210A435A61254B1B6910221340EB
:10068C003BD1A023DB055A69A023DB0501218A435A
:10069C005A61A023DB055A69A023DB0502210A431A
:1006AC005A611B4B1B691022134026D1A023DB057A
:1006BC005A69A023DB0502218A435A61A023DB057A
:1006CC005A69A023DB0510210A435A61104B1B69A0
:1006DC001022134011D1A023DB055A69A023DB059E
:1006EC0010218A435A61A023DB055A69A023DB053C
:1006FC0020210A435A61064B1B6900F075F9054B22
:10070C00DA68044B10210A43DA60C046BD4680BD4E
:10071C00000400500018024080B500AF00F089F9C9
:10072C009F4BDB680422134000D199E0A023DB052A
:10073C005A69A023DB0501210A435A61994B1B69B5
:10074C000422134011D0984B1B68012B06D1974BF8
:10075C0002221A70944B00221A607AE0944B022207
:10076C001A70914B01221A6073E0A023DB055A69C1
:10077C00A023DB0501218A435A61A023DB055A69BA
:10078C00A023DB0502210A435A61864B1B69042214
:10079C00134011D0844B1B68012B06D1834B0522CF
:1007AC001A70814B00221A6053E0814B05221A709B
:1007BC007D4B01221A604CE0A023DB055A69A02373
:1007CC00DB0502218A435A61A023DB055A69A02369
:1007DC00DB0510210A435A61724B1B69042213403A
:1007EC0011D0714B1B68012B06D1704B08221A706B
:1007FC006D4B00221A602CE06D4B08221A706A4B6C
:10080C0001221A6025E0A023DB055A69A023DB0531
:10081C0010218A435A61A023DB055A69A023DB050A
:10082C0020210A435A615F4B1B690422134010D0EC
:10083C005D4B1B68012B06D15C4B00221A705A4B86
:10084C0000221A6005E05A4B00221A70564B012206
:10085C001A60534BDA68524B04210A43DA6099E070
:10086C00A023DB055A69A023DB0501210A435A6149
:10087C004C4B1B690822134011D04B4B1B68012BAE
:10088C0006D14A4B03221A70474B00221A607BE0B8
:10089C00474B03221A70444B01221A6074E0A023C8
:1008AC00DB055A69A023DB0501218A435A61A02389
:1008BC00DB055A69A023DB0502210A435A61394B37
:1008CC001B690822134011D0374B1B68012B06D132
:1008DC00364B06221A70344B00221A6054E0344B0B
:1008EC0006221A70304B01221A604DE0A023DB0562
:1008FC005A69A023DB0502218A435A61A023DB0538
:10090C005A69A023DB0510210A435A61254B1B6948
:10091C000822134011D0244B1B68012B06D1234B0A
:10092C0009221A70204B00221A602DE0204B09225C
:10093C001A701D4B01221A6026E0A023DB055A69B0
:10094C00A023DB0510218A435A61A023DB055A69D9
:10095C00A023DB0520210A435A61124B1B69082294
:10096C00134011D0114B1B781A0013009B009B18DD
:10097C005B001A000E4B1B78D21813009B009B18BF
:10098C005B011A000B4B5A63054BDA68044B0821C8
:10099C000A43DA6000F028F8C046BD4680BDC04668
:1009AC000018024000040050000000203C00002011
:1009BC003D0000200004004080B582B000AF020072
:1009CC00FB1D1A70074BFA1D12789A62C046054B34
:1009DC00DB6940221340FAD0C046C046BD4602B087
:1009EC0080BDC0460044004080B500AFA023DB05AD
:1009FC005A69A023DB0501210A435A61A023DB05B8
:100A0C005A69A023DB0502210A435A61A023DB05A6
:100A1C005A69A023DB0510210A435A61A023DB0588
:100A2C005A69A023DB0520210A435A61C046BD4602
:100A3C0080BD80B500AFA023DB055A69A023DB0580
:100A4C0001218A435A61A023DB055A69A023DB05E7
:100A5C0002218A435A61A023DB055A69A023DB05D6
:100A6C0010218A435A61A023DB055A69A023DB05B8
:100A7C0020218A435A61C046BD4680BD80B582B0F4
:100A8C0000AF786002E07B68013B7B607B68002BE9
:100A9C00F9D1C046C046BD4602B080BD80B500AF9E
:100AAC00A023DB051A68A023DB0503218A431A6007
:100ABC00A023DB051A68A023DB0501210A431A6079
:100ACC00A023DB051A68A023DB050C218A431A60DE
:100ADC00A023DB051A68A023DB0504210A431A6056
:100AEC00A023DB051A68A023DB055C490A401A60C9
:100AFC00A023DB051A68A023DB05802149000A43EB
:100B0C001A60A023DB051A68A023DB0554490A40B0
:100B1C001A60A023DB051A68A023DB058021C9001D
:100B2C000A431A604F4B1A684E4B0C218A431A60C9
:100B3C004C4BDA684B4B08210A43DA60494B1A6874
:100B4C00484B30218A431A60464BDA68454B2021CA
:100B5C000A43DA60434B1A68424BC0218A431A603D
:100B6C00404BDA683F4B80210A43DA603D4B1A68F0
:100B7C003C4B3A490A401A603A4BDA68394B8021AF
:100B8C0089000A43DA60384B1A68374B02210A4352
:100B9C001A60354B1A6E344B802149000A431A6691
:100BAC00314A8023D35830490222134380228B5080
:100BBC0001210520FFF746FB0520FFF729FB2A4BF7
:100BCC001A68294B04210A431A60274B1A6E264BCC
:100BDC00802149020A431A66234A8023D3582249AA
:100BEC000422134380228B501F4B1A681E4B082182
:100BFC000A431A601C4B1A6E1B4B802149040A4392
:100C0C001A66194A8023D3581749082213438022A5
:100C1C008B5000210620FFF715FB0620FFF7F8FA92
:100C2C00114B1A68104B10210A431A600E4B5A6E66
:100C3C000D4B01210A435A660B4A8023D3580A49AB
:100C4C001022134380228B5002210720FFF7FAFA5F
:100C5C000720FFF7DDFAC046BD4680BDFFFCFFFF55
:100C6C00FFF3FFFF000400500018024080B582B073
:100C7C0000AF78603B4B5A6B3A4B01210A435A63E5
:100C8C00384BDA6B374B802189020A43DA63A02395
:100C9C00DB051A68A023DB0530218A431A60A023E8
:100CAC00DB051A68A023DB0520210A431A60A02368
:100CBC00DB051A6AA023DB052B490A401A62A02324
:100CCC00DB051A6AA023DB05802149000A431A625E
:100CDC00A023DB051A68A023DB05C0218A431A6018
:100CEC00A023DB051A68A023DB0580210A431A60C8
:100CFC00A023DB051A6AA023DB051C490A401A62F3
:100D0C00A023DB051A6AA023DB05802149010A43D5
:100D1C001A62174B00221A60154B1A68144B0821E3
:100D2C000A431A60124B1A68114B04210A431A60C9
:100D3C000F4B1A680E4B20210A431A600D4B1B688F
:100D4C0079681800FFF7D8F903009AB2084BDA60FB
:100D5C00074B1A68064B01210A431A60C046BD4670
:100D6C0002B080BD00100240FFF0FFFFFF0FFFFF3D
:100D7C00004400400400002080B500AF414B5A6B8A
:100D8C00404B03210A435A63A023DB051A68A023B6
:100D9C00DB053D490A401A60A023DB051A68A02335
:100DAC00DB05802189010A431A60A023DB051A6A3E
:100DBC00A023DB0535490A401A62A023DB051A6A19
:100DCC00A023DB05802149040A431A622D4BDA6B00
:100DDC002C4B02210A43DA632D4B00221A602C4B58
:100DEC001A682B4B80210A431A60294B00225A6245
:100DFC00274B0A229A62264BFA229201DA62244B82
:100E0C00DA68234B01210A43DA60214B9A69204BA3
:100E1C0008210A439A611E4B9A691D4B1D490A40D1
:100E2C009A611B4B9A691A4B40210A439A61184BE1
:100E3C009A69174B20210A439A61154B9A69144BF6
:100E4C0010218A439A61124B1A6A114B01210A43F1
:100E5C001A620F4B00225A630D4B5A690C4B01213D
:100E6C000A435A610A4B1A68094B01210A431A605A
:100E7C0003211020FFF7E6F91020FFF7C9F9C0464F
:100E8C00BD4680BD00100240FFCFFFFFFFFFFFF00B
:100E9C0000040040FFFFFEFF80B500AFFEE780B509
:100EAC0000AFFEE780B500AFC046BD4680BD80B543
:100EBC0000AFC046BD4680BD80B500AF00F032F833
:100ECC00C046BD4680BD80B500AFC046BD4680BDA6
:100EDC000D488546FFF7F7FF0C480D490D4A0023D6
:100EEC0002E0D458C4500433C4188C42F9D30A4AD3
:100EFC000A4C002301E013600432A242FBD300F041
:100F0C0023F8FFF70DFAFEE7002000200000002078
:100F1C000C000020BC0F00080C0000204800002032
:100F2C00FEE7000080B500AF054B1B781A00054B9F
:100F3C001B68D218034B1A60C046BD4680BDC04624
:100F4C00080000204400002070B500260C4C0D4D0C
:100F5C00641BA410A64209D1002600F019F80A4C13
:100F6C000A4D641BA410A64205D170BDB300EB580A
:100F7C0098470136EEE7B300EB5898470136F2E795
:100F8C00B40F0008B40F0008B80F0008B40F000825
:100F9C00F8B5C046F8BC08BC9E467047F8B5C046CC
:080FAC00F8BC08BC9E4670472A
:040FB400E50000084C
:040FB800BD00000870
:0C0FBC00010000000024F400010000000F
:0400000508000EDD04
:00000001FF
