:020000040800F2
:1000000000200020F1030008B9030008BF03000826
:1000100000000000000000000000000000000000E0
:10002000000000000000000000000000C503000800
:100030000000000000000000CF030008D903000802
:10004000410400084104000841040008410400087C
:10005000410400084104000841040008410400086C
:1000600000000000410400084104000841040008A9
:10007000410400084104000841040008150200087A
:10008000410400084104000841040008410400083C
:100090000000000041040008410400084104000879
:1000A000410400084104000841040008410400081C
:0C00B000410400084104000800000000AA
:1000BC0010B5064C2378002B07D1054B002B02D032
:1000CC00044800E000BF0123237010BD0400002091
:1000DC0000000000B0040008044B10B5002B03D046
:1000EC000349044800E000BF10BDC04600000000FA
:1000FC0008000020B004000880B582B000AF0200F8
:10010C00FB1D1A70FB1D1B787F2B09D8FB1D1B7860
:10011C001A001F231A40044B012191400A001A6057
:10012C00C046BD4602B080BD00E100E090B583B092
:10013C0000AF02003960FB1D1A70FB1D1B787F2B72
:10014C0028D82F4AFB1D1B785BB29B08C0339B0041
:10015C009B58FA1D1278110003220A40D200FF218D
:10016C0091400A00D2431A4011003B689B01FF22C8
:10017C001A40FB1D1B78180003230340DB009A4038
:10018C001F48FB1D1B785BB29B080A43C0339B00C6
:10019C001A5031E01B4AFB1D1B7819000F230B4032
:1001AC00083B9B0806339B00D31804331B68FA1DCD
:1001BC001278110003220A40D200FF2191400A005C
:1001CC00D2431A4011003B689B01FF221A40FB1DD1
:1001DC001B78180003230340DB009A400948FB1DE1
:1001EC001B781C000F232340083B9B080A43063353
:1001FC009B00C31804331A60C046BD4603B090BDC3
:10020C0000E100E000ED00E080B500AF204B1B7872
:10021C00002B1AD18023DB055A6B8023DB05DB6AAC
:10022C009A4212D28023DB055A6B8023DB05C8323D
:10023C005A638023DB055A6B8023DB05DB6A9A4209
:10024C001BD3134B01221A7017E0114B1B78002B98
:10025C0013D08023DB055B6B002B0ED08023DB05DA
:10026C005A6B8023DB05C83A5A638023DB055B6B32
:10027C00002B02D1064B00221A708023DB051A6971
:10028C008023DB0501218A431A61C046BD4680BD2F
:10029C002000002080B500AF00F004F800F028F832
:1002AC00FEE7000080B500AF104B5A6B0F4B0121DD
:1002BC000A435A63A023DB051A68A023DB0503213C
:1002CC008A431A60A023DB051A68A023DB050221F0
:1002DC000A431A60A023DB051A6AA023DB0502215E
:1002EC000A431A62C046BD4680BDC046001002409B
:1002FC0080B500AF2C4BDA6B2B4B01210A43DA6330
:10030C008023DB0500221A608023DB0580221A6023
:10031C008023DB059A698023DB0560210A439A61FF
:10032C008023DB059A698023DB0508210A439A6147
:10033C008023DB051A6A8023DB0501210A431A623C
:10034C008023DB0500225A628023DB0509229A6296
:10035C008023DB05FA229201DA628023DB0500227E
:10036C005A638023DB055A698023DB0501210A438C
:10037C005A618023DB05DA688023DB0501210A43FF
:10038C00DA608023DB051A688023DB0501210A4330
:10039C001A6001210F20FFF7C9FE0F20FFF7ACFEFA
:1003AC00C046BD4680BDC0460010024080B500AFBF
:1003BC00FEE780B500AFFEE780B500AFC046BD4696
:1003CC0080BD80B500AFC046BD4680BD80B500AFD6
:1003DC0000F032F8C046BD4680BD80B500AFC046C7
:1003EC00BD4680BD0D488546FFF7F7FF0C480D490B
:1003FC000D4A002302E0D458C4500433C4188C4274
:10040C00F9D30A4A0A4C002301E013600432A242D9
:10041C00FBD300F023F8FFF73DFFFEE700200020A0
:10042C000000002004000020D0040008040000207C
:10043C0028000020FEE7000080B500AF054B1B78BC
:10044C001A00054B1B68D218034B1A60C046BD46F8
:10045C0080BDC046000000202400002070B500269E
:10046C000C4C0D4D641BA410A64209D1002600F0C3
:10047C0019F80A4C0A4D641BA410A64205D170BD94
:10048C00B300EB5898470136EEE7B300EB589847AA
:10049C000136F2E7C8040008C8040008CC040008C0
:1004AC00C8040008F8B5C046F8BC08BC9E467047A6
:0C04BC00F8B5C046F8BC08BC9E4670476E
:0404C800E500000843
:0404CC00BD00000867
:0404D0000100000027
:04000005080003F1FB
:00000001FF
